{
    "contractName": "CasualItemTest",
    "abi": [
        {
            "inputs": [],
            "stateMutability": "nonpayable",
            "type": "constructor"
        },
        {
            "anonymous": false,
            "inputs": [
                {
                    "indexed": true,
                    "internalType": "address",
                    "name": "account",
                    "type": "address"
                },
                {
                    "indexed": true,
                    "internalType": "address",
                    "name": "operator",
                    "type": "address"
                },
                {
                    "indexed": false,
                    "internalType": "bool",
                    "name": "approved",
                    "type": "bool"
                }
            ],
            "name": "ApprovalForAll",
            "type": "event"
        },
        {
            "anonymous": false,
            "inputs": [
                {
                    "indexed": true,
                    "internalType": "address",
                    "name": "previousOwner",
                    "type": "address"
                },
                {
                    "indexed": true,
                    "internalType": "address",
                    "name": "newOwner",
                    "type": "address"
                }
            ],
            "name": "OwnershipTransferred",
            "type": "event"
        },
        {
            "anonymous": false,
            "inputs": [
                {
                    "indexed": true,
                    "internalType": "address",
                    "name": "operator",
                    "type": "address"
                },
                {
                    "indexed": true,
                    "internalType": "address",
                    "name": "from",
                    "type": "address"
                },
                {
                    "indexed": true,
                    "internalType": "address",
                    "name": "to",
                    "type": "address"
                },
                {
                    "indexed": false,
                    "internalType": "uint256[]",
                    "name": "ids",
                    "type": "uint256[]"
                },
                {
                    "indexed": false,
                    "internalType": "uint256[]",
                    "name": "values",
                    "type": "uint256[]"
                }
            ],
            "name": "TransferBatch",
            "type": "event"
        },
        {
            "anonymous": false,
            "inputs": [
                {
                    "indexed": true,
                    "internalType": "address",
                    "name": "operator",
                    "type": "address"
                },
                {
                    "indexed": true,
                    "internalType": "address",
                    "name": "from",
                    "type": "address"
                },
                {
                    "indexed": true,
                    "internalType": "address",
                    "name": "to",
                    "type": "address"
                },
                {
                    "indexed": false,
                    "internalType": "uint256",
                    "name": "id",
                    "type": "uint256"
                },
                {
                    "indexed": false,
                    "internalType": "uint256",
                    "name": "value",
                    "type": "uint256"
                }
            ],
            "name": "TransferSingle",
            "type": "event"
        },
        {
            "anonymous": false,
            "inputs": [
                {
                    "indexed": false,
                    "internalType": "string",
                    "name": "value",
                    "type": "string"
                },
                {
                    "indexed": true,
                    "internalType": "uint256",
                    "name": "id",
                    "type": "uint256"
                }
            ],
            "name": "URI",
            "type": "event"
        },
        {
            "inputs": [
                {
                    "internalType": "address",
                    "name": "account",
                    "type": "address"
                },
                {
                    "internalType": "uint256",
                    "name": "id",
                    "type": "uint256"
                }
            ],
            "name": "balanceOf",
            "outputs": [
                {
                    "internalType": "uint256",
                    "name": "",
                    "type": "uint256"
                }
            ],
            "stateMutability": "view",
            "type": "function"
        },
        {
            "inputs": [
                {
                    "internalType": "address[]",
                    "name": "accounts",
                    "type": "address[]"
                },
                {
                    "internalType": "uint256[]",
                    "name": "ids",
                    "type": "uint256[]"
                }
            ],
            "name": "balanceOfBatch",
            "outputs": [
                {
                    "internalType": "uint256[]",
                    "name": "",
                    "type": "uint256[]"
                }
            ],
            "stateMutability": "view",
            "type": "function"
        },
        {
            "inputs": [
                {
                    "internalType": "address",
                    "name": "account",
                    "type": "address"
                },
                {
                    "internalType": "uint256",
                    "name": "id",
                    "type": "uint256"
                },
                {
                    "internalType": "uint256",
                    "name": "value",
                    "type": "uint256"
                }
            ],
            "name": "burn",
            "outputs": [],
            "stateMutability": "nonpayable",
            "type": "function"
        },
        {
            "inputs": [
                {
                    "internalType": "address",
                    "name": "account",
                    "type": "address"
                },
                {
                    "internalType": "uint256[]",
                    "name": "ids",
                    "type": "uint256[]"
                },
                {
                    "internalType": "uint256[]",
                    "name": "values",
                    "type": "uint256[]"
                }
            ],
            "name": "burnBatch",
            "outputs": [],
            "stateMutability": "nonpayable",
            "type": "function"
        },
        {
            "inputs": [
                {
                    "internalType": "uint256",
                    "name": "id",
                    "type": "uint256"
                }
            ],
            "name": "exists",
            "outputs": [
                {
                    "internalType": "bool",
                    "name": "",
                    "type": "bool"
                }
            ],
            "stateMutability": "view",
            "type": "function"
        },
        {
            "inputs": [
                {
                    "internalType": "address",
                    "name": "account",
                    "type": "address"
                },
                {
                    "internalType": "address",
                    "name": "operator",
                    "type": "address"
                }
            ],
            "name": "isApprovedForAll",
            "outputs": [
                {
                    "internalType": "bool",
                    "name": "",
                    "type": "bool"
                }
            ],
            "stateMutability": "view",
            "type": "function"
        },
        {
            "inputs": [
                {
                    "internalType": "address",
                    "name": "account",
                    "type": "address"
                },
                {
                    "internalType": "uint256",
                    "name": "id",
                    "type": "uint256"
                },
                {
                    "internalType": "uint256",
                    "name": "amount",
                    "type": "uint256"
                },
                {
                    "internalType": "bytes",
                    "name": "data",
                    "type": "bytes"
                }
            ],
            "name": "mint",
            "outputs": [],
            "stateMutability": "nonpayable",
            "type": "function"
        },
        {
            "inputs": [
                {
                    "internalType": "address",
                    "name": "to",
                    "type": "address"
                },
                {
                    "internalType": "uint256[]",
                    "name": "ids",
                    "type": "uint256[]"
                },
                {
                    "internalType": "uint256[]",
                    "name": "amounts",
                    "type": "uint256[]"
                },
                {
                    "internalType": "bytes",
                    "name": "data",
                    "type": "bytes"
                }
            ],
            "name": "mintBatch",
            "outputs": [],
            "stateMutability": "nonpayable",
            "type": "function"
        },
        {
            "inputs": [],
            "name": "owner",
            "outputs": [
                {
                    "internalType": "address",
                    "name": "",
                    "type": "address"
                }
            ],
            "stateMutability": "view",
            "type": "function"
        },
        {
            "inputs": [],
            "name": "renounceOwnership",
            "outputs": [],
            "stateMutability": "nonpayable",
            "type": "function"
        },
        {
            "inputs": [
                {
                    "internalType": "address",
                    "name": "from",
                    "type": "address"
                },
                {
                    "internalType": "address",
                    "name": "to",
                    "type": "address"
                },
                {
                    "internalType": "uint256[]",
                    "name": "ids",
                    "type": "uint256[]"
                },
                {
                    "internalType": "uint256[]",
                    "name": "amounts",
                    "type": "uint256[]"
                },
                {
                    "internalType": "bytes",
                    "name": "data",
                    "type": "bytes"
                }
            ],
            "name": "safeBatchTransferFrom",
            "outputs": [],
            "stateMutability": "nonpayable",
            "type": "function"
        },
        {
            "inputs": [
                {
                    "internalType": "address",
                    "name": "from",
                    "type": "address"
                },
                {
                    "internalType": "address",
                    "name": "to",
                    "type": "address"
                },
                {
                    "internalType": "uint256",
                    "name": "id",
                    "type": "uint256"
                },
                {
                    "internalType": "uint256",
                    "name": "amount",
                    "type": "uint256"
                },
                {
                    "internalType": "bytes",
                    "name": "data",
                    "type": "bytes"
                }
            ],
            "name": "safeTransferFrom",
            "outputs": [],
            "stateMutability": "nonpayable",
            "type": "function"
        },
        {
            "inputs": [
                {
                    "internalType": "address",
                    "name": "operator",
                    "type": "address"
                },
                {
                    "internalType": "bool",
                    "name": "approved",
                    "type": "bool"
                }
            ],
            "name": "setApprovalForAll",
            "outputs": [],
            "stateMutability": "nonpayable",
            "type": "function"
        },
        {
            "inputs": [
                {
                    "internalType": "string",
                    "name": "newuri",
                    "type": "string"
                }
            ],
            "name": "setURI",
            "outputs": [],
            "stateMutability": "nonpayable",
            "type": "function"
        },
        {
            "inputs": [
                {
                    "internalType": "bytes4",
                    "name": "interfaceId",
                    "type": "bytes4"
                }
            ],
            "name": "supportsInterface",
            "outputs": [
                {
                    "internalType": "bool",
                    "name": "",
                    "type": "bool"
                }
            ],
            "stateMutability": "view",
            "type": "function"
        },
        {
            "inputs": [
                {
                    "internalType": "uint256",
                    "name": "id",
                    "type": "uint256"
                }
            ],
            "name": "totalSupply",
            "outputs": [
                {
                    "internalType": "uint256",
                    "name": "",
                    "type": "uint256"
                }
            ],
            "stateMutability": "view",
            "type": "function"
        },
        {
            "inputs": [
                {
                    "internalType": "address",
                    "name": "newOwner",
                    "type": "address"
                }
            ],
            "name": "transferOwnership",
            "outputs": [],
            "stateMutability": "nonpayable",
            "type": "function"
        },
        {
            "inputs": [
                {
                    "internalType": "uint256",
                    "name": "",
                    "type": "uint256"
                }
            ],
            "name": "uri",
            "outputs": [
                {
                    "internalType": "string",
                    "name": "",
                    "type": "string"
                }
            ],
            "stateMutability": "view",
            "type": "function"
        }
    ],
    "bytecode": "60806040523480156200001157600080fd5b506040805180820190915260078152667465737455524960c81b60208201526200003b816200004d565b5062000047336200005f565b62000222565b60026200005b828262000156565b5050565b600380546001600160a01b038381166001600160a01b0319831681179093556040519116919082907f8be0079c531659141344cd1fd0a4f28419497f9722a3daafe3b4186f6b6457e090600090a35050565b634e487b7160e01b600052604160045260246000fd5b600181811c90821680620000dc57607f821691505b602082108103620000fd57634e487b7160e01b600052602260045260246000fd5b50919050565b601f8211156200015157600081815260208120601f850160051c810160208610156200012c5750805b601f850160051c820191505b818110156200014d5782815560010162000138565b5050505b505050565b81516001600160401b03811115620001725762000172620000b1565b6200018a81620001838454620000c7565b8462000103565b602080601f831160018114620001c25760008415620001a95750858301515b600019600386901b1c1916600185901b1785556200014d565b600085815260208120601f198616915b82811015620001f357888601518255948401946001909101908401620001d2565b5085821015620002125787850151600019600388901b60f8161c191681555b5050505050600190811b01905550565b61214280620002326000396000f3fe608060405234801561001057600080fd5b50600436106101155760003560e01c8063715018a6116100a2578063bd85b03911610071578063bd85b0391461025c578063e985e9c51461027c578063f242432a146102b8578063f2fde38b146102cb578063f5298aca146102de57600080fd5b8063715018a614610213578063731133e91461021b5780638da5cb5b1461022e578063a22cb4651461024957600080fd5b80631f7fdffa116100e95780631f7fdffa146101985780632eb2c2d6146101ab5780634e1273f4146101be5780634f558e79146101de5780636b20c4541461020057600080fd5b8062fdd58e1461011a57806301ffc9a71461014057806302fe5305146101635780630e89341c14610178575b600080fd5b61012d6101283660046114f3565b6102f1565b6040519081526020015b60405180910390f35b61015361014e366004611533565b61038a565b6040519015158152602001610137565b6101766101713660046115f6565b6103da565b005b61018b610186366004611646565b6103ee565b60405161013791906116a5565b6101766101a636600461176c565b610482565b6101766101b9366004611804565b610494565b6101d16101cc3660046118ad565b6104e0565b60405161013791906119b2565b6101536101ec366004611646565b600090815260046020526040902054151590565b61017661020e3660046119c5565b610609565b610176610651565b610176610229366004611a38565b610665565b6003546040516001600160a01b039091168152602001610137565b610176610257366004611a8c565b610671565b61012d61026a366004611646565b60009081526004602052604090205490565b61015361028a366004611ac8565b6001600160a01b03918216600090815260016020908152604080832093909416825291909152205460ff1690565b6101766102c6366004611afb565b610680565b6101766102d9366004611b5f565b6106c5565b6101766102ec366004611b7a565b61073b565b60006001600160a01b0383166103615760405162461bcd60e51b815260206004820152602a60248201527f455243313135353a2061646472657373207a65726f206973206e6f742061207660448201526930b634b21037bbb732b960b11b60648201526084015b60405180910390fd5b506000818152602081815260408083206001600160a01b03861684529091529020545b92915050565b60006001600160e01b03198216636cdb3d1360e11b14806103bb57506001600160e01b031982166303a24d0760e21b145b8061038457506301ffc9a760e01b6001600160e01b0319831614610384565b6103e261077e565b6103eb816107d8565b50565b6060600280546103fd90611bad565b80601f016020809104026020016040519081016040528092919081815260200182805461042990611bad565b80156104765780601f1061044b57610100808354040283529160200191610476565b820191906000526020600020905b81548152906001019060200180831161045957829003601f168201915b50505050509050919050565b61048e848484846107e4565b50505050565b6001600160a01b0385163314806104b057506104b0853361028a565b6104cc5760405162461bcd60e51b815260040161035890611be7565b6104d9858585858561093e565b5050505050565b606081518351146105455760405162461bcd60e51b815260206004820152602960248201527f455243313135353a206163636f756e747320616e6420696473206c656e677468604482015268040dad2e6dac2e8c6d60bb1b6064820152608401610358565b600083516001600160401b0381111561056057610560611557565b604051908082528060200260200182016040528015610589578160200160208202803683370190505b50905060005b8451811015610601576105d48582815181106105ad576105ad611c35565b60200260200101518583815181106105c7576105c7611c35565b60200260200101516102f1565b8282815181106105e6576105e6611c35565b60209081029190910101526105fa81611c61565b905061058f565b509392505050565b6001600160a01b0383163314806106255750610625833361028a565b6106415760405162461bcd60e51b815260040161035890611be7565b61064c838383610ae8565b505050565b61065961077e565b6106636000610c84565b565b61048e84848484610cd6565b61067c338383610dbf565b5050565b6001600160a01b03851633148061069c575061069c853361028a565b6106b85760405162461bcd60e51b815260040161035890611be7565b6104d98585858585610e9f565b6106cd61077e565b6001600160a01b0381166107325760405162461bcd60e51b815260206004820152602660248201527f4f776e61626c653a206e6577206f776e657220697320746865207a65726f206160448201526564647265737360d01b6064820152608401610358565b6103eb81610c84565b6001600160a01b0383163314806107575750610757833361028a565b6107735760405162461bcd60e51b815260040161035890611be7565b61064c838383610fd7565b6003546001600160a01b031633146106635760405162461bcd60e51b815260206004820181905260248201527f4f776e61626c653a2063616c6c6572206973206e6f7420746865206f776e65726044820152606401610358565b600261067c8282611cc0565b6001600160a01b03841661080a5760405162461bcd60e51b815260040161035890611d7f565b815183511461082b5760405162461bcd60e51b815260040161035890611dc0565b3361083b816000878787876110ef565b60005b84518110156108d65783818151811061085957610859611c35565b602002602001015160008087848151811061087657610876611c35565b602002602001015181526020019081526020016000206000886001600160a01b03166001600160a01b0316815260200190815260200160002060008282546108be9190611e08565b909155508190506108ce81611c61565b91505061083e565b50846001600160a01b031660006001600160a01b0316826001600160a01b03167f4a39dc06d4c0dbc64b70af90fd698a233a518aa5d07e595d983b8c0526c8f7fb8787604051610927929190611e1b565b60405180910390a46104d9816000878787876110fd565b815183511461095f5760405162461bcd60e51b815260040161035890611dc0565b6001600160a01b0384166109855760405162461bcd60e51b815260040161035890611e49565b336109948187878787876110ef565b60005b8451811015610a7a5760008582815181106109b4576109b4611c35565b6020026020010151905060008583815181106109d2576109d2611c35565b602090810291909101810151600084815280835260408082206001600160a01b038e168352909352919091205490915081811015610a225760405162461bcd60e51b815260040161035890611e8e565b6000838152602081815260408083206001600160a01b038e8116855292528083208585039055908b16825281208054849290610a5f908490611e08565b9250508190555050505080610a7390611c61565b9050610997565b50846001600160a01b0316866001600160a01b0316826001600160a01b03167f4a39dc06d4c0dbc64b70af90fd698a233a518aa5d07e595d983b8c0526c8f7fb8787604051610aca929190611e1b565b60405180910390a4610ae08187878787876110fd565b505050505050565b6001600160a01b038316610b0e5760405162461bcd60e51b815260040161035890611ed8565b8051825114610b2f5760405162461bcd60e51b815260040161035890611dc0565b6000339050610b52818560008686604051806020016040528060008152506110ef565b60005b8351811015610c17576000848281518110610b7257610b72611c35565b602002602001015190506000848381518110610b9057610b90611c35565b602090810291909101810151600084815280835260408082206001600160a01b038c168352909352919091205490915081811015610be05760405162461bcd60e51b815260040161035890611f1b565b6000928352602083815260408085206001600160a01b038b1686529091529092209103905580610c0f81611c61565b915050610b55565b5060006001600160a01b0316846001600160a01b0316826001600160a01b03167f4a39dc06d4c0dbc64b70af90fd698a233a518aa5d07e595d983b8c0526c8f7fb8686604051610c68929190611e1b565b60405180910390a460408051602081019091526000905261048e565b600380546001600160a01b038381166001600160a01b0319831681179093556040519116919082907f8be0079c531659141344cd1fd0a4f28419497f9722a3daafe3b4186f6b6457e090600090a35050565b6001600160a01b038416610cfc5760405162461bcd60e51b815260040161035890611d7f565b336000610d0885611258565b90506000610d1585611258565b9050610d26836000898585896110ef565b6000868152602081815260408083206001600160a01b038b16845290915281208054879290610d56908490611e08565b909155505060408051878152602081018790526001600160a01b03808a1692600092918716917fc3d58168c5ae7397731d063d5bbf3d657854427343f4c083240f7aacaa2d0f62910160405180910390a4610db6836000898989896112a3565b50505050505050565b816001600160a01b0316836001600160a01b031603610e325760405162461bcd60e51b815260206004820152602960248201527f455243313135353a2073657474696e6720617070726f76616c20737461747573604482015268103337b91039b2b63360b91b6064820152608401610358565b6001600160a01b03838116600081815260016020908152604080832094871680845294825291829020805460ff191686151590811790915591519182527f17307eab39ab6107e8899845ad3d59bd9653f200f220920489ca2b5937696c31910160405180910390a3505050565b6001600160a01b038416610ec55760405162461bcd60e51b815260040161035890611e49565b336000610ed185611258565b90506000610ede85611258565b9050610eee8389898585896110ef565b6000868152602081815260408083206001600160a01b038c16845290915290205485811015610f2f5760405162461bcd60e51b815260040161035890611e8e565b6000878152602081815260408083206001600160a01b038d8116855292528083208985039055908a16825281208054889290610f6c908490611e08565b909155505060408051888152602081018890526001600160a01b03808b16928c821692918816917fc3d58168c5ae7397731d063d5bbf3d657854427343f4c083240f7aacaa2d0f62910160405180910390a4610fcc848a8a8a8a8a6112a3565b505050505050505050565b6001600160a01b038316610ffd5760405162461bcd60e51b815260040161035890611ed8565b33600061100984611258565b9050600061101684611258565b9050611036838760008585604051806020016040528060008152506110ef565b6000858152602081815260408083206001600160a01b038a168452909152902054848110156110775760405162461bcd60e51b815260040161035890611f1b565b6000868152602081815260408083206001600160a01b038b81168086529184528285208a8703905582518b81529384018a90529092908816917fc3d58168c5ae7397731d063d5bbf3d657854427343f4c083240f7aacaa2d0f62910160405180910390a4604080516020810190915260009052610db6565b610ae086868686868661135e565b6001600160a01b0384163b15610ae05760405163bc197c8160e01b81526001600160a01b0385169063bc197c81906111419089908990889088908890600401611f5f565b6020604051808303816000875af192505050801561117c575060408051601f3d908101601f1916820190925261117991810190611fbd565b60015b61122857611188611fda565b806308c379a0036111c1575061119c611ff6565b806111a757506111c3565b8060405162461bcd60e51b815260040161035891906116a5565b505b60405162461bcd60e51b815260206004820152603460248201527f455243313135353a207472616e7366657220746f206e6f6e2d455243313135356044820152732932b1b2b4bb32b91034b6b83632b6b2b73a32b960611b6064820152608401610358565b6001600160e01b0319811663bc197c8160e01b14610db65760405162461bcd60e51b81526004016103589061207f565b6040805160018082528183019092526060916000919060208083019080368337019050509050828160008151811061129257611292611c35565b602090810291909101015292915050565b6001600160a01b0384163b15610ae05760405163f23a6e6160e01b81526001600160a01b0385169063f23a6e61906112e790899089908890889088906004016120c7565b6020604051808303816000875af1925050508015611322575060408051601f3d908101601f1916820190925261131f91810190611fbd565b60015b61132e57611188611fda565b6001600160e01b0319811663f23a6e6160e01b14610db65760405162461bcd60e51b81526004016103589061207f565b6001600160a01b0385166113e55760005b83518110156113e35782818151811061138a5761138a611c35565b6020026020010151600460008684815181106113a8576113a8611c35565b6020026020010151815260200190815260200160002060008282546113cd9190611e08565b909155506113dc905081611c61565b905061136f565b505b6001600160a01b038416610ae05760005b8351811015610db657600084828151811061141357611413611c35565b60200260200101519050600084838151811061143157611431611c35565b60200260200101519050600060046000848152602001908152602001600020549050818110156114b45760405162461bcd60e51b815260206004820152602860248201527f455243313135353a206275726e20616d6f756e74206578636565647320746f74604482015267616c537570706c7960c01b6064820152608401610358565b600092835260046020526040909220910390556114d081611c61565b90506113f6565b80356001600160a01b03811681146114ee57600080fd5b919050565b6000806040838503121561150657600080fd5b61150f836114d7565b946020939093013593505050565b6001600160e01b0319811681146103eb57600080fd5b60006020828403121561154557600080fd5b81356115508161151d565b9392505050565b634e487b7160e01b600052604160045260246000fd5b601f8201601f191681016001600160401b038111828210171561159257611592611557565b6040525050565b60006001600160401b038311156115b2576115b2611557565b6040516115c9601f8501601f19166020018261156d565b8091508381528484840111156115de57600080fd5b83836020830137600060208583010152509392505050565b60006020828403121561160857600080fd5b81356001600160401b0381111561161e57600080fd5b8201601f8101841361162f57600080fd5b61163e84823560208401611599565b949350505050565b60006020828403121561165857600080fd5b5035919050565b6000815180845260005b8181101561168557602081850181015186830182015201611669565b506000602082860101526020601f19601f83011685010191505092915050565b602081526000611550602083018461165f565b60006001600160401b038211156116d1576116d1611557565b5060051b60200190565b600082601f8301126116ec57600080fd5b813560206116f9826116b8565b604051611706828261156d565b83815260059390931b850182019282810191508684111561172657600080fd5b8286015b84811015611741578035835291830191830161172a565b509695505050505050565b600082601f83011261175d57600080fd5b61155083833560208501611599565b6000806000806080858703121561178257600080fd5b61178b856114d7565b935060208501356001600160401b03808211156117a757600080fd5b6117b3888389016116db565b945060408701359150808211156117c957600080fd5b6117d5888389016116db565b935060608701359150808211156117eb57600080fd5b506117f88782880161174c565b91505092959194509250565b600080600080600060a0868803121561181c57600080fd5b611825866114d7565b9450611833602087016114d7565b935060408601356001600160401b038082111561184f57600080fd5b61185b89838a016116db565b9450606088013591508082111561187157600080fd5b61187d89838a016116db565b9350608088013591508082111561189357600080fd5b506118a08882890161174c565b9150509295509295909350565b600080604083850312156118c057600080fd5b82356001600160401b03808211156118d757600080fd5b818501915085601f8301126118eb57600080fd5b813560206118f8826116b8565b604051611905828261156d565b83815260059390931b850182019282810191508984111561192557600080fd5b948201945b8386101561194a5761193b866114d7565b8252948201949082019061192a565b9650508601359250508082111561196057600080fd5b5061196d858286016116db565b9150509250929050565b600081518084526020808501945080840160005b838110156119a75781518752958201959082019060010161198b565b509495945050505050565b6020815260006115506020830184611977565b6000806000606084860312156119da57600080fd5b6119e3846114d7565b925060208401356001600160401b03808211156119ff57600080fd5b611a0b878388016116db565b93506040860135915080821115611a2157600080fd5b50611a2e868287016116db565b9150509250925092565b60008060008060808587031215611a4e57600080fd5b611a57856114d7565b9350602085013592506040850135915060608501356001600160401b03811115611a8057600080fd5b6117f88782880161174c565b60008060408385031215611a9f57600080fd5b611aa8836114d7565b915060208301358015158114611abd57600080fd5b809150509250929050565b60008060408385031215611adb57600080fd5b611ae4836114d7565b9150611af2602084016114d7565b90509250929050565b600080600080600060a08688031215611b1357600080fd5b611b1c866114d7565b9450611b2a602087016114d7565b9350604086013592506060860135915060808601356001600160401b03811115611b5357600080fd5b6118a08882890161174c565b600060208284031215611b7157600080fd5b611550826114d7565b600080600060608486031215611b8f57600080fd5b611b98846114d7565b95602085013595506040909401359392505050565b600181811c90821680611bc157607f821691505b602082108103611be157634e487b7160e01b600052602260045260246000fd5b50919050565b6020808252602e908201527f455243313135353a2063616c6c6572206973206e6f7420746f6b656e206f776e60408201526d195c881bdc88185c1c1c9bdd995960921b606082015260800190565b634e487b7160e01b600052603260045260246000fd5b634e487b7160e01b600052601160045260246000fd5b600060018201611c7357611c73611c4b565b5060010190565b601f82111561064c57600081815260208120601f850160051c81016020861015611ca15750805b601f850160051c820191505b81811015610ae057828155600101611cad565b81516001600160401b03811115611cd957611cd9611557565b611ced81611ce78454611bad565b84611c7a565b602080601f831160018114611d225760008415611d0a5750858301515b600019600386901b1c1916600185901b178555610ae0565b600085815260208120601f198616915b82811015611d5157888601518255948401946001909101908401611d32565b5085821015611d6f5787850151600019600388901b60f8161c191681555b5050505050600190811b01905550565b60208082526021908201527f455243313135353a206d696e7420746f20746865207a65726f206164647265736040820152607360f81b606082015260800190565b60208082526028908201527f455243313135353a2069647320616e6420616d6f756e7473206c656e677468206040820152670dad2e6dac2e8c6d60c31b606082015260800190565b8082018082111561038457610384611c4b565b604081526000611e2e6040830185611977565b8281036020840152611e408185611977565b95945050505050565b60208082526025908201527f455243313135353a207472616e7366657220746f20746865207a65726f206164604082015264647265737360d81b606082015260800190565b6020808252602a908201527f455243313135353a20696e73756666696369656e742062616c616e636520666f60408201526939103a3930b739b332b960b11b606082015260800190565b60208082526023908201527f455243313135353a206275726e2066726f6d20746865207a65726f206164647260408201526265737360e81b606082015260800190565b60208082526024908201527f455243313135353a206275726e20616d6f756e7420657863656564732062616c604082015263616e636560e01b606082015260800190565b6001600160a01b0386811682528516602082015260a060408201819052600090611f8b90830186611977565b8281036060840152611f9d8186611977565b90508281036080840152611fb1818561165f565b98975050505050505050565b600060208284031215611fcf57600080fd5b81516115508161151d565b600060033d1115611ff35760046000803e5060005160e01c5b90565b600060443d10156120045790565b6040516003193d81016004833e81513d6001600160401b03816024840111818411171561203357505050505090565b828501915081518181111561204b5750505050505090565b843d87010160208285010111156120655750505050505090565b6120746020828601018761156d565b509095945050505050565b60208082526028908201527f455243313135353a204552433131353552656365697665722072656a656374656040820152676420746f6b656e7360c01b606082015260800190565b6001600160a01b03868116825285166020820152604081018490526060810183905260a0608082018190526000906121019083018461165f565b97965050505050505056fea2646970667358221220ea69a299e7a1f084f900a2b9c309d7753c6c6cf55d74fde83e369c1fab2f7b4864736f6c63430008130033",
    "sourcePath": "c:/Users/bozen/Downloads/ZkSync_Deployer/contracts/CasualItemTest.sol",
    "compiler": {
        "name": "solc",
        "version": "0.8.19+commit.7dd6d404"
    },
    "functionHashes": {
        "balanceOf(address,uint256)": "00fdd58e",
        "balanceOfBatch(address[],uint256[])": "4e1273f4",
        "burn(address,uint256,uint256)": "f5298aca",
        "burnBatch(address,uint256[],uint256[])": "6b20c454",
        "exists(uint256)": "4f558e79",
        "isApprovedForAll(address,address)": "e985e9c5",
        "mint(address,uint256,uint256,bytes)": "731133e9",
        "mintBatch(address,uint256[],uint256[],bytes)": "1f7fdffa",
        "owner()": "8da5cb5b",
        "renounceOwnership()": "715018a6",
        "safeBatchTransferFrom(address,address,uint256[],uint256[],bytes)": "2eb2c2d6",
        "safeTransferFrom(address,address,uint256,uint256,bytes)": "f242432a",
        "setApprovalForAll(address,bool)": "a22cb465",
        "setURI(string)": "02fe5305",
        "supportsInterface(bytes4)": "01ffc9a7",
        "totalSupply(uint256)": "bd85b039",
        "transferOwnership(address)": "f2fde38b",
        "uri(uint256)": "0e89341c"
    },
    "gasEstimates": {
        "creation": {
            "codeDepositCost": "1702800",
            "executionCost": "infinite",
            "totalCost": "infinite"
        },
        "external": {
            "balanceOf(address,uint256)": "2700",
            "balanceOfBatch(address[],uint256[])": "infinite",
            "burn(address,uint256,uint256)": "infinite",
            "burnBatch(address,uint256[],uint256[])": "infinite",
            "exists(uint256)": "2539",
            "isApprovedForAll(address,address)": "infinite",
            "mint(address,uint256,uint256,bytes)": "infinite",
            "mintBatch(address,uint256[],uint256[],bytes)": "infinite",
            "owner()": "2368",
            "renounceOwnership()": "infinite",
            "safeBatchTransferFrom(address,address,uint256[],uint256[],bytes)": "infinite",
            "safeTransferFrom(address,address,uint256,uint256,bytes)": "infinite",
            "setApprovalForAll(address,bool)": "26772",
            "setURI(string)": "infinite",
            "supportsInterface(bytes4)": "578",
            "totalSupply(uint256)": "2449",
            "transferOwnership(address)": "28424",
            "uri(uint256)": "infinite"
        },
        "internal": {
            "_beforeTokenTransfer(address,address,address,uint256[] memory,uint256[] memory,bytes memory)": "infinite"
        }
    }
}