{
    "contractName": "ZkChickensItem",
    "abi": [
        {
            "inputs": [
                {
                    "internalType": "address",
                    "name": "_tokenAddress",
                    "type": "address"
                },
                {
                    "internalType": "address",
                    "name": "_treasuryAddress",
                    "type": "address"
                }
            ],
            "stateMutability": "nonpayable",
            "type": "constructor"
        },
        {
            "anonymous": false,
            "inputs": [
                {
                    "indexed": true,
                    "internalType": "address",
                    "name": "account",
                    "type": "address"
                },
                {
                    "indexed": true,
                    "internalType": "address",
                    "name": "operator",
                    "type": "address"
                },
                {
                    "indexed": false,
                    "internalType": "bool",
                    "name": "approved",
                    "type": "bool"
                }
            ],
            "name": "ApprovalForAll",
            "type": "event"
        },
        {
            "anonymous": false,
            "inputs": [
                {
                    "indexed": true,
                    "internalType": "address",
                    "name": "previousOwner",
                    "type": "address"
                },
                {
                    "indexed": true,
                    "internalType": "address",
                    "name": "newOwner",
                    "type": "address"
                }
            ],
            "name": "OwnershipTransferred",
            "type": "event"
        },
        {
            "anonymous": false,
            "inputs": [
                {
                    "indexed": true,
                    "internalType": "address",
                    "name": "operator",
                    "type": "address"
                },
                {
                    "indexed": true,
                    "internalType": "address",
                    "name": "from",
                    "type": "address"
                },
                {
                    "indexed": true,
                    "internalType": "address",
                    "name": "to",
                    "type": "address"
                },
                {
                    "indexed": false,
                    "internalType": "uint256[]",
                    "name": "ids",
                    "type": "uint256[]"
                },
                {
                    "indexed": false,
                    "internalType": "uint256[]",
                    "name": "values",
                    "type": "uint256[]"
                }
            ],
            "name": "TransferBatch",
            "type": "event"
        },
        {
            "anonymous": false,
            "inputs": [
                {
                    "indexed": true,
                    "internalType": "address",
                    "name": "operator",
                    "type": "address"
                },
                {
                    "indexed": true,
                    "internalType": "address",
                    "name": "from",
                    "type": "address"
                },
                {
                    "indexed": true,
                    "internalType": "address",
                    "name": "to",
                    "type": "address"
                },
                {
                    "indexed": false,
                    "internalType": "uint256",
                    "name": "id",
                    "type": "uint256"
                },
                {
                    "indexed": false,
                    "internalType": "uint256",
                    "name": "value",
                    "type": "uint256"
                }
            ],
            "name": "TransferSingle",
            "type": "event"
        },
        {
            "anonymous": false,
            "inputs": [
                {
                    "indexed": false,
                    "internalType": "string",
                    "name": "value",
                    "type": "string"
                },
                {
                    "indexed": true,
                    "internalType": "uint256",
                    "name": "id",
                    "type": "uint256"
                }
            ],
            "name": "URI",
            "type": "event"
        },
        {
            "inputs": [
                {
                    "internalType": "uint256",
                    "name": "",
                    "type": "uint256"
                }
            ],
            "name": "activeItems",
            "outputs": [
                {
                    "internalType": "bool",
                    "name": "",
                    "type": "bool"
                }
            ],
            "stateMutability": "view",
            "type": "function"
        },
        {
            "inputs": [
                {
                    "internalType": "address",
                    "name": "account",
                    "type": "address"
                },
                {
                    "internalType": "uint256",
                    "name": "id",
                    "type": "uint256"
                }
            ],
            "name": "balanceOf",
            "outputs": [
                {
                    "internalType": "uint256",
                    "name": "",
                    "type": "uint256"
                }
            ],
            "stateMutability": "view",
            "type": "function"
        },
        {
            "inputs": [
                {
                    "internalType": "address[]",
                    "name": "accounts",
                    "type": "address[]"
                },
                {
                    "internalType": "uint256[]",
                    "name": "ids",
                    "type": "uint256[]"
                }
            ],
            "name": "balanceOfBatch",
            "outputs": [
                {
                    "internalType": "uint256[]",
                    "name": "",
                    "type": "uint256[]"
                }
            ],
            "stateMutability": "view",
            "type": "function"
        },
        {
            "inputs": [
                {
                    "internalType": "address",
                    "name": "account",
                    "type": "address"
                },
                {
                    "internalType": "uint256",
                    "name": "id",
                    "type": "uint256"
                },
                {
                    "internalType": "uint256",
                    "name": "value",
                    "type": "uint256"
                }
            ],
            "name": "burn",
            "outputs": [],
            "stateMutability": "nonpayable",
            "type": "function"
        },
        {
            "inputs": [
                {
                    "internalType": "address",
                    "name": "account",
                    "type": "address"
                },
                {
                    "internalType": "uint256[]",
                    "name": "ids",
                    "type": "uint256[]"
                },
                {
                    "internalType": "uint256[]",
                    "name": "values",
                    "type": "uint256[]"
                }
            ],
            "name": "burnBatch",
            "outputs": [],
            "stateMutability": "nonpayable",
            "type": "function"
        },
        {
            "inputs": [
                {
                    "internalType": "uint256",
                    "name": "id",
                    "type": "uint256"
                }
            ],
            "name": "exists",
            "outputs": [
                {
                    "internalType": "bool",
                    "name": "",
                    "type": "bool"
                }
            ],
            "stateMutability": "view",
            "type": "function"
        },
        {
            "inputs": [
                {
                    "internalType": "address",
                    "name": "account",
                    "type": "address"
                },
                {
                    "internalType": "address",
                    "name": "operator",
                    "type": "address"
                }
            ],
            "name": "isApprovedForAll",
            "outputs": [
                {
                    "internalType": "bool",
                    "name": "",
                    "type": "bool"
                }
            ],
            "stateMutability": "view",
            "type": "function"
        },
        {
            "inputs": [
                {
                    "internalType": "address",
                    "name": "account",
                    "type": "address"
                },
                {
                    "internalType": "uint256",
                    "name": "id",
                    "type": "uint256"
                },
                {
                    "internalType": "uint256",
                    "name": "amount",
                    "type": "uint256"
                },
                {
                    "internalType": "bytes",
                    "name": "data",
                    "type": "bytes"
                }
            ],
            "name": "mint",
            "outputs": [],
            "stateMutability": "nonpayable",
            "type": "function"
        },
        {
            "inputs": [
                {
                    "internalType": "address",
                    "name": "to",
                    "type": "address"
                },
                {
                    "internalType": "uint256[]",
                    "name": "ids",
                    "type": "uint256[]"
                },
                {
                    "internalType": "uint256[]",
                    "name": "amounts",
                    "type": "uint256[]"
                },
                {
                    "internalType": "bytes",
                    "name": "data",
                    "type": "bytes"
                }
            ],
            "name": "mintBatch",
            "outputs": [],
            "stateMutability": "nonpayable",
            "type": "function"
        },
        {
            "inputs": [
                {
                    "internalType": "uint256",
                    "name": "",
                    "type": "uint256"
                }
            ],
            "name": "mintCosts",
            "outputs": [
                {
                    "internalType": "uint256",
                    "name": "",
                    "type": "uint256"
                }
            ],
            "stateMutability": "view",
            "type": "function"
        },
        {
            "inputs": [],
            "name": "owner",
            "outputs": [
                {
                    "internalType": "address",
                    "name": "",
                    "type": "address"
                }
            ],
            "stateMutability": "view",
            "type": "function"
        },
        {
            "inputs": [],
            "name": "renounceOwnership",
            "outputs": [],
            "stateMutability": "nonpayable",
            "type": "function"
        },
        {
            "inputs": [
                {
                    "internalType": "address",
                    "name": "from",
                    "type": "address"
                },
                {
                    "internalType": "address",
                    "name": "to",
                    "type": "address"
                },
                {
                    "internalType": "uint256[]",
                    "name": "ids",
                    "type": "uint256[]"
                },
                {
                    "internalType": "uint256[]",
                    "name": "amounts",
                    "type": "uint256[]"
                },
                {
                    "internalType": "bytes",
                    "name": "data",
                    "type": "bytes"
                }
            ],
            "name": "safeBatchTransferFrom",
            "outputs": [],
            "stateMutability": "nonpayable",
            "type": "function"
        },
        {
            "inputs": [
                {
                    "internalType": "address",
                    "name": "from",
                    "type": "address"
                },
                {
                    "internalType": "address",
                    "name": "to",
                    "type": "address"
                },
                {
                    "internalType": "uint256",
                    "name": "id",
                    "type": "uint256"
                },
                {
                    "internalType": "uint256",
                    "name": "amount",
                    "type": "uint256"
                },
                {
                    "internalType": "bytes",
                    "name": "data",
                    "type": "bytes"
                }
            ],
            "name": "safeTransferFrom",
            "outputs": [],
            "stateMutability": "nonpayable",
            "type": "function"
        },
        {
            "inputs": [
                {
                    "internalType": "address",
                    "name": "operator",
                    "type": "address"
                },
                {
                    "internalType": "bool",
                    "name": "approved",
                    "type": "bool"
                }
            ],
            "name": "setApprovalForAll",
            "outputs": [],
            "stateMutability": "nonpayable",
            "type": "function"
        },
        {
            "inputs": [
                {
                    "internalType": "uint256",
                    "name": "id",
                    "type": "uint256"
                },
                {
                    "internalType": "uint256",
                    "name": "mintCost",
                    "type": "uint256"
                },
                {
                    "internalType": "bool",
                    "name": "isActive",
                    "type": "bool"
                }
            ],
            "name": "setItem",
            "outputs": [],
            "stateMutability": "nonpayable",
            "type": "function"
        },
        {
            "inputs": [
                {
                    "internalType": "string",
                    "name": "newuri",
                    "type": "string"
                }
            ],
            "name": "setURI",
            "outputs": [],
            "stateMutability": "nonpayable",
            "type": "function"
        },
        {
            "inputs": [
                {
                    "internalType": "bytes4",
                    "name": "interfaceId",
                    "type": "bytes4"
                }
            ],
            "name": "supportsInterface",
            "outputs": [
                {
                    "internalType": "bool",
                    "name": "",
                    "type": "bool"
                }
            ],
            "stateMutability": "view",
            "type": "function"
        },
        {
            "inputs": [
                {
                    "internalType": "address",
                    "name": "newAddress",
                    "type": "address"
                }
            ],
            "name": "testUpdateTokenAddress",
            "outputs": [],
            "stateMutability": "nonpayable",
            "type": "function"
        },
        {
            "inputs": [
                {
                    "internalType": "address",
                    "name": "newAddress",
                    "type": "address"
                }
            ],
            "name": "testUpdateTreasuryAddress",
            "outputs": [],
            "stateMutability": "nonpayable",
            "type": "function"
        },
        {
            "inputs": [],
            "name": "token",
            "outputs": [
                {
                    "internalType": "contract ERC20",
                    "name": "",
                    "type": "address"
                }
            ],
            "stateMutability": "view",
            "type": "function"
        },
        {
            "inputs": [
                {
                    "internalType": "uint256",
                    "name": "id",
                    "type": "uint256"
                }
            ],
            "name": "totalSupply",
            "outputs": [
                {
                    "internalType": "uint256",
                    "name": "",
                    "type": "uint256"
                }
            ],
            "stateMutability": "view",
            "type": "function"
        },
        {
            "inputs": [
                {
                    "internalType": "address",
                    "name": "newOwner",
                    "type": "address"
                }
            ],
            "name": "transferOwnership",
            "outputs": [],
            "stateMutability": "nonpayable",
            "type": "function"
        },
        {
            "inputs": [],
            "name": "treasuryAddress",
            "outputs": [
                {
                    "internalType": "address",
                    "name": "",
                    "type": "address"
                }
            ],
            "stateMutability": "view",
            "type": "function"
        },
        {
            "inputs": [
                {
                    "internalType": "uint256",
                    "name": "",
                    "type": "uint256"
                }
            ],
            "name": "uri",
            "outputs": [
                {
                    "internalType": "string",
                    "name": "",
                    "type": "string"
                }
            ],
            "stateMutability": "view",
            "type": "function"
        }
    ],
    "bytecode": "60806040523480156200001157600080fd5b50604051620029c3380380620029c383398101604081905262000034916200019c565b6040805180820190915260078152667465737455524960c81b60208201526200005d816200011b565b5062000069336200012d565b60005b6014811015620000e85768056bc75e2d631000006007826103e88110620000975762000097620001d4565b015560016103ef826103e88110620000b357620000b3620001d4565b602091828204019190066101000a81548160ff0219169083151502179055508080620000df90620001ea565b9150506200006c565b50600580546001600160a01b039384166001600160a01b0319918216179091556006805492909316911617905562000383565b6002620001298282620002b7565b5050565b600380546001600160a01b038381166001600160a01b0319831681179093556040519116919082907f8be0079c531659141344cd1fd0a4f28419497f9722a3daafe3b4186f6b6457e090600090a35050565b80516001600160a01b03811681146200019757600080fd5b919050565b60008060408385031215620001b057600080fd5b620001bb836200017f565b9150620001cb602084016200017f565b90509250929050565b634e487b7160e01b600052603260045260246000fd5b6000600182016200020b57634e487b7160e01b600052601160045260246000fd5b5060010190565b634e487b7160e01b600052604160045260246000fd5b600181811c908216806200023d57607f821691505b6020821081036200025e57634e487b7160e01b600052602260045260246000fd5b50919050565b601f821115620002b257600081815260208120601f850160051c810160208610156200028d5750805b601f850160051c820191505b81811015620002ae5782815560010162000299565b5050505b505050565b81516001600160401b03811115620002d357620002d362000212565b620002eb81620002e4845462000228565b8462000264565b602080601f8311600181146200032357600084156200030a5750858301515b600019600386901b1c1916600185901b178555620002ae565b600085815260208120601f198616915b82811015620003545788860151825594840194600190910190840162000333565b5085821015620003735787850151600019600388901b60f8161c191681555b5050505050600190811b01905550565b61263080620003936000396000f3fe608060405234801561001057600080fd5b50600436106101725760003560e01c806382897b41116100de578063c5f956af11610097578063f242432a11610071578063f242432a146103cb578063f2fde38b146103de578063f5298aca146103f1578063fc0c546a1461040457600080fd5b8063c5f956af14610369578063c70a2cf71461037c578063e985e9c51461038f57600080fd5b806382897b41146102bb5780638da5cb5b146102eb5780639c318c7b14610310578063a22cb46514610323578063bbcf696a14610336578063bd85b0391461034957600080fd5b80632eb2c2d6116101305780632eb2c2d6146102385780634e1273f41461024b5780634f558e791461026b5780636b20c4541461028d578063715018a6146102a0578063731133e9146102a857600080fd5b8062fdd58e1461017757806301ffc9a71461019d57806302fe5305146101c05780630e89341c146101d55780631f7fdffa146101f55780632108879014610208575b600080fd5b61018a61018536600461196b565b610417565b6040519081526020015b60405180910390f35b6101b06101ab3660046119ab565b6104b0565b6040519015158152602001610194565b6101d36101ce366004611a6e565b610500565b005b6101e86101e3366004611abe565b610514565b6040516101949190611b1d565b6101d3610203366004611be4565b6105a8565b6101d3610216366004611c7c565b600580546001600160a01b0319166001600160a01b0392909216919091179055565b6101d3610246366004611c97565b610758565b61025e610259366004611d40565b61079d565b6040516101949190611e45565b6101b0610279366004611abe565b600090815260046020526040902054151590565b6101d361029b366004611e58565b6108c6565b6101d361090e565b6101d36102b6366004611ecb565b610922565b6101d36102c9366004611c7c565b600680546001600160a01b0319166001600160a01b0392909216919091179055565b6003546001600160a01b03165b6040516001600160a01b039091168152602001610194565b6101b061031e366004611abe565b610a4b565b6101d3610331366004611f2d565b610a77565b6101d3610344366004611f64565b610a86565b61018a610357366004611abe565b60009081526004602052604090205490565b6006546102f8906001600160a01b031681565b61018a61038a366004611abe565b610adf565b6101b061039d366004611f9d565b6001600160a01b03918216600090815260016020908152604080832093909416825291909152205460ff1690565b6101d36103d9366004611fd0565b610af7565b6101d36103ec366004611c7c565b610b3c565b6101d36103ff366004612034565b610bb2565b6005546102f8906001600160a01b031681565b60006001600160a01b0383166104875760405162461bcd60e51b815260206004820152602a60248201527f455243313135353a2061646472657373207a65726f206973206e6f742061207660448201526930b634b21037bbb732b960b11b60648201526084015b60405180910390fd5b506000818152602081815260408083206001600160a01b03861684529091529020545b92915050565b60006001600160e01b03198216636cdb3d1360e11b14806104e157506001600160e01b031982166303a24d0760e21b145b806104aa57506301ffc9a760e01b6001600160e01b03198316146104aa565b610508610bf5565b61051181610c4f565b50565b60606002805461052390612067565b80601f016020809104026020016040519081016040528092919081815260200182805461054f90612067565b801561059c5780601f106105715761010080835404028352916020019161059c565b820191906000526020600020905b81548152906001019060200180831161057f57829003601f168201915b50505050509050919050565b6000805b84518110156106c2576103ef8582815181106105ca576105ca6120a1565b60200260200101516103e881106105e3576105e36120a1565b602081049091015460ff601f9092166101000a9004166106515760405162461bcd60e51b8152602060048201526024808201527f4d696e74206c69737420636f6e7461696e7320616e20696e616374697665206960448201526374656d2160e01b606482015260840161047e565b6007858281518110610665576106656120a1565b60200260200101516103e8811061067e5761067e6120a1565b0154848281518110610692576106926120a1565b60200260200101516106a491906120cd565b6106ae90836120e4565b9150806106ba816120f7565b9150506105ac565b506005546006546040516323b872dd60e01b81526001600160a01b0388811660048301529182166024820152604481018490529116906323b872dd906064016020604051808303816000875af1158015610720573d6000803e3d6000fd5b505050506040513d601f19601f820116820180604052508101906107449190612110565b5061075185858585610c5b565b5050505050565b6001600160a01b0385163314806107745750610774853361039d565b6107905760405162461bcd60e51b815260040161047e9061212d565b6107518585858585610db5565b606081518351146108025760405162461bcd60e51b815260206004820152602960248201527f455243313135353a206163636f756e747320616e6420696473206c656e677468604482015268040dad2e6dac2e8c6d60bb1b606482015260840161047e565b600083516001600160401b0381111561081d5761081d6119cf565b604051908082528060200260200182016040528015610846578160200160208202803683370190505b50905060005b84518110156108be5761089185828151811061086a5761086a6120a1565b6020026020010151858381518110610884576108846120a1565b6020026020010151610417565b8282815181106108a3576108a36120a1565b60209081029190910101526108b7816120f7565b905061084c565b509392505050565b6001600160a01b0383163314806108e257506108e2833361039d565b6108fe5760405162461bcd60e51b815260040161047e9061212d565b610909838383610f5f565b505050565b610916610bf5565b61092060006110fc565b565b6103ef836103e88110610937576109376120a1565b602081049091015460ff601f9092166101000a9004166109995760405162461bcd60e51b815260206004820152601860248201527f54686973206974656d206973206e6f7420616374697665210000000000000000604482015260640161047e565b60006007846103e881106109af576109af6120a1565b01546109bb90846120cd565b6005546006546040516323b872dd60e01b81526001600160a01b03898116600483015291821660248201526044810184905292935016906323b872dd906064016020604051808303816000875af1158015610a1a573d6000803e3d6000fd5b505050506040513d601f19601f82011682018060405250810190610a3e9190612110565b506107518585858561114e565b6103ef816103e88110610a5d57600080fd5b60209182820401919006915054906101000a900460ff1681565b610a82338383611237565b5050565b610a8e610bf5565b816007846103e88110610aa357610aa36120a1565b0155806103ef846103e88110610abb57610abb6120a1565b602091828204019190066101000a81548160ff021916908315150217905550505050565b6007816103e88110610af057600080fd5b0154905081565b6001600160a01b038516331480610b135750610b13853361039d565b610b2f5760405162461bcd60e51b815260040161047e9061212d565b6107518585858585611317565b610b44610bf5565b6001600160a01b038116610ba95760405162461bcd60e51b815260206004820152602660248201527f4f776e61626c653a206e6577206f776e657220697320746865207a65726f206160448201526564647265737360d01b606482015260840161047e565b610511816110fc565b6001600160a01b038316331480610bce5750610bce833361039d565b610bea5760405162461bcd60e51b815260040161047e9061212d565b61090983838361144f565b6003546001600160a01b031633146109205760405162461bcd60e51b815260206004820181905260248201527f4f776e61626c653a2063616c6c6572206973206e6f7420746865206f776e6572604482015260640161047e565b6002610a8282826121c1565b6001600160a01b038416610c815760405162461bcd60e51b815260040161047e90612280565b8151835114610ca25760405162461bcd60e51b815260040161047e906122c1565b33610cb281600087878787611567565b60005b8451811015610d4d57838181518110610cd057610cd06120a1565b6020026020010151600080878481518110610ced57610ced6120a1565b602002602001015181526020019081526020016000206000886001600160a01b03166001600160a01b031681526020019081526020016000206000828254610d3591906120e4565b90915550819050610d45816120f7565b915050610cb5565b50846001600160a01b031660006001600160a01b0316826001600160a01b03167f4a39dc06d4c0dbc64b70af90fd698a233a518aa5d07e595d983b8c0526c8f7fb8787604051610d9e929190612309565b60405180910390a461075181600087878787611575565b8151835114610dd65760405162461bcd60e51b815260040161047e906122c1565b6001600160a01b038416610dfc5760405162461bcd60e51b815260040161047e90612337565b33610e0b818787878787611567565b60005b8451811015610ef1576000858281518110610e2b57610e2b6120a1565b602002602001015190506000858381518110610e4957610e496120a1565b602090810291909101810151600084815280835260408082206001600160a01b038e168352909352919091205490915081811015610e995760405162461bcd60e51b815260040161047e9061237c565b6000838152602081815260408083206001600160a01b038e8116855292528083208585039055908b16825281208054849290610ed69084906120e4565b9250508190555050505080610eea906120f7565b9050610e0e565b50846001600160a01b0316866001600160a01b0316826001600160a01b03167f4a39dc06d4c0dbc64b70af90fd698a233a518aa5d07e595d983b8c0526c8f7fb8787604051610f41929190612309565b60405180910390a4610f57818787878787611575565b505050505050565b6001600160a01b038316610f855760405162461bcd60e51b815260040161047e906123c6565b8051825114610fa65760405162461bcd60e51b815260040161047e906122c1565b6000339050610fc981856000868660405180602001604052806000815250611567565b60005b835181101561108e576000848281518110610fe957610fe96120a1565b602002602001015190506000848381518110611007576110076120a1565b602090810291909101810151600084815280835260408082206001600160a01b038c1683529093529190912054909150818110156110575760405162461bcd60e51b815260040161047e90612409565b6000928352602083815260408085206001600160a01b038b1686529091529092209103905580611086816120f7565b915050610fcc565b5060006001600160a01b0316846001600160a01b0316826001600160a01b03167f4a39dc06d4c0dbc64b70af90fd698a233a518aa5d07e595d983b8c0526c8f7fb86866040516110df929190612309565b60405180910390a460408051602081019091526000905250505050565b600380546001600160a01b038381166001600160a01b0319831681179093556040519116919082907f8be0079c531659141344cd1fd0a4f28419497f9722a3daafe3b4186f6b6457e090600090a35050565b6001600160a01b0384166111745760405162461bcd60e51b815260040161047e90612280565b336000611180856116d0565b9050600061118d856116d0565b905061119e83600089858589611567565b6000868152602081815260408083206001600160a01b038b168452909152812080548792906111ce9084906120e4565b909155505060408051878152602081018790526001600160a01b03808a1692600092918716917fc3d58168c5ae7397731d063d5bbf3d657854427343f4c083240f7aacaa2d0f62910160405180910390a461122e8360008989898961171b565b50505050505050565b816001600160a01b0316836001600160a01b0316036112aa5760405162461bcd60e51b815260206004820152602960248201527f455243313135353a2073657474696e6720617070726f76616c20737461747573604482015268103337b91039b2b63360b91b606482015260840161047e565b6001600160a01b03838116600081815260016020908152604080832094871680845294825291829020805460ff191686151590811790915591519182527f17307eab39ab6107e8899845ad3d59bd9653f200f220920489ca2b5937696c31910160405180910390a3505050565b6001600160a01b03841661133d5760405162461bcd60e51b815260040161047e90612337565b336000611349856116d0565b90506000611356856116d0565b9050611366838989858589611567565b6000868152602081815260408083206001600160a01b038c168452909152902054858110156113a75760405162461bcd60e51b815260040161047e9061237c565b6000878152602081815260408083206001600160a01b038d8116855292528083208985039055908a168252812080548892906113e49084906120e4565b909155505060408051888152602081018890526001600160a01b03808b16928c821692918816917fc3d58168c5ae7397731d063d5bbf3d657854427343f4c083240f7aacaa2d0f62910160405180910390a4611444848a8a8a8a8a61171b565b505050505050505050565b6001600160a01b0383166114755760405162461bcd60e51b815260040161047e906123c6565b336000611481846116d0565b9050600061148e846116d0565b90506114ae83876000858560405180602001604052806000815250611567565b6000858152602081815260408083206001600160a01b038a168452909152902054848110156114ef5760405162461bcd60e51b815260040161047e90612409565b6000868152602081815260408083206001600160a01b038b81168086529184528285208a8703905582518b81529384018a90529092908816917fc3d58168c5ae7397731d063d5bbf3d657854427343f4c083240f7aacaa2d0f62910160405180910390a460408051602081019091526000905261122e565b610f578686868686866117d6565b6001600160a01b0384163b15610f575760405163bc197c8160e01b81526001600160a01b0385169063bc197c81906115b9908990899088908890889060040161244d565b6020604051808303816000875af19250505080156115f4575060408051601f3d908101601f191682019092526115f1918101906124ab565b60015b6116a0576116006124c8565b806308c379a00361163957506116146124e4565b8061161f575061163b565b8060405162461bcd60e51b815260040161047e9190611b1d565b505b60405162461bcd60e51b815260206004820152603460248201527f455243313135353a207472616e7366657220746f206e6f6e2d455243313135356044820152732932b1b2b4bb32b91034b6b83632b6b2b73a32b960611b606482015260840161047e565b6001600160e01b0319811663bc197c8160e01b1461122e5760405162461bcd60e51b815260040161047e9061256d565b6040805160018082528183019092526060916000919060208083019080368337019050509050828160008151811061170a5761170a6120a1565b602090810291909101015292915050565b6001600160a01b0384163b15610f575760405163f23a6e6160e01b81526001600160a01b0385169063f23a6e619061175f90899089908890889088906004016125b5565b6020604051808303816000875af192505050801561179a575060408051601f3d908101601f19168201909252611797918101906124ab565b60015b6117a6576116006124c8565b6001600160e01b0319811663f23a6e6160e01b1461122e5760405162461bcd60e51b815260040161047e9061256d565b6001600160a01b03851661185d5760005b835181101561185b57828181518110611802576118026120a1565b602002602001015160046000868481518110611820576118206120a1565b60200260200101518152602001908152602001600020600082825461184591906120e4565b909155506118549050816120f7565b90506117e7565b505b6001600160a01b038416610f575760005b835181101561122e57600084828151811061188b5761188b6120a1565b6020026020010151905060008483815181106118a9576118a96120a1565b602002602001015190506000600460008481526020019081526020016000205490508181101561192c5760405162461bcd60e51b815260206004820152602860248201527f455243313135353a206275726e20616d6f756e74206578636565647320746f74604482015267616c537570706c7960c01b606482015260840161047e565b60009283526004602052604090922091039055611948816120f7565b905061186e565b80356001600160a01b038116811461196657600080fd5b919050565b6000806040838503121561197e57600080fd5b6119878361194f565b946020939093013593505050565b6001600160e01b03198116811461051157600080fd5b6000602082840312156119bd57600080fd5b81356119c881611995565b9392505050565b634e487b7160e01b600052604160045260246000fd5b601f8201601f191681016001600160401b0381118282101715611a0a57611a0a6119cf565b6040525050565b60006001600160401b03831115611a2a57611a2a6119cf565b604051611a41601f8501601f1916602001826119e5565b809150838152848484011115611a5657600080fd5b83836020830137600060208583010152509392505050565b600060208284031215611a8057600080fd5b81356001600160401b03811115611a9657600080fd5b8201601f81018413611aa757600080fd5b611ab684823560208401611a11565b949350505050565b600060208284031215611ad057600080fd5b5035919050565b6000815180845260005b81811015611afd57602081850181015186830182015201611ae1565b506000602082860101526020601f19601f83011685010191505092915050565b6020815260006119c86020830184611ad7565b60006001600160401b03821115611b4957611b496119cf565b5060051b60200190565b600082601f830112611b6457600080fd5b81356020611b7182611b30565b604051611b7e82826119e5565b83815260059390931b8501820192828101915086841115611b9e57600080fd5b8286015b84811015611bb95780358352918301918301611ba2565b509695505050505050565b600082601f830112611bd557600080fd5b6119c883833560208501611a11565b60008060008060808587031215611bfa57600080fd5b611c038561194f565b935060208501356001600160401b0380821115611c1f57600080fd5b611c2b88838901611b53565b94506040870135915080821115611c4157600080fd5b611c4d88838901611b53565b93506060870135915080821115611c6357600080fd5b50611c7087828801611bc4565b91505092959194509250565b600060208284031215611c8e57600080fd5b6119c88261194f565b600080600080600060a08688031215611caf57600080fd5b611cb88661194f565b9450611cc66020870161194f565b935060408601356001600160401b0380821115611ce257600080fd5b611cee89838a01611b53565b94506060880135915080821115611d0457600080fd5b611d1089838a01611b53565b93506080880135915080821115611d2657600080fd5b50611d3388828901611bc4565b9150509295509295909350565b60008060408385031215611d5357600080fd5b82356001600160401b0380821115611d6a57600080fd5b818501915085601f830112611d7e57600080fd5b81356020611d8b82611b30565b604051611d9882826119e5565b83815260059390931b8501820192828101915089841115611db857600080fd5b948201945b83861015611ddd57611dce8661194f565b82529482019490820190611dbd565b96505086013592505080821115611df357600080fd5b50611e0085828601611b53565b9150509250929050565b600081518084526020808501945080840160005b83811015611e3a57815187529582019590820190600101611e1e565b509495945050505050565b6020815260006119c86020830184611e0a565b600080600060608486031215611e6d57600080fd5b611e768461194f565b925060208401356001600160401b0380821115611e9257600080fd5b611e9e87838801611b53565b93506040860135915080821115611eb457600080fd5b50611ec186828701611b53565b9150509250925092565b60008060008060808587031215611ee157600080fd5b611eea8561194f565b9350602085013592506040850135915060608501356001600160401b03811115611f1357600080fd5b611c7087828801611bc4565b801515811461051157600080fd5b60008060408385031215611f4057600080fd5b611f498361194f565b91506020830135611f5981611f1f565b809150509250929050565b600080600060608486031215611f7957600080fd5b83359250602084013591506040840135611f9281611f1f565b809150509250925092565b60008060408385031215611fb057600080fd5b611fb98361194f565b9150611fc76020840161194f565b90509250929050565b600080600080600060a08688031215611fe857600080fd5b611ff18661194f565b9450611fff6020870161194f565b9350604086013592506060860135915060808601356001600160401b0381111561202857600080fd5b611d3388828901611bc4565b60008060006060848603121561204957600080fd5b6120528461194f565b95602085013595506040909401359392505050565b600181811c9082168061207b57607f821691505b60208210810361209b57634e487b7160e01b600052602260045260246000fd5b50919050565b634e487b7160e01b600052603260045260246000fd5b634e487b7160e01b600052601160045260246000fd5b80820281158282048414176104aa576104aa6120b7565b808201808211156104aa576104aa6120b7565b600060018201612109576121096120b7565b5060010190565b60006020828403121561212257600080fd5b81516119c881611f1f565b6020808252602e908201527f455243313135353a2063616c6c6572206973206e6f7420746f6b656e206f776e60408201526d195c881bdc88185c1c1c9bdd995960921b606082015260800190565b601f82111561090957600081815260208120601f850160051c810160208610156121a25750805b601f850160051c820191505b81811015610f57578281556001016121ae565b81516001600160401b038111156121da576121da6119cf565b6121ee816121e88454612067565b8461217b565b602080601f831160018114612223576000841561220b5750858301515b600019600386901b1c1916600185901b178555610f57565b600085815260208120601f198616915b8281101561225257888601518255948401946001909101908401612233565b50858210156122705787850151600019600388901b60f8161c191681555b5050505050600190811b01905550565b60208082526021908201527f455243313135353a206d696e7420746f20746865207a65726f206164647265736040820152607360f81b606082015260800190565b60208082526028908201527f455243313135353a2069647320616e6420616d6f756e7473206c656e677468206040820152670dad2e6dac2e8c6d60c31b606082015260800190565b60408152600061231c6040830185611e0a565b828103602084015261232e8185611e0a565b95945050505050565b60208082526025908201527f455243313135353a207472616e7366657220746f20746865207a65726f206164604082015264647265737360d81b606082015260800190565b6020808252602a908201527f455243313135353a20696e73756666696369656e742062616c616e636520666f60408201526939103a3930b739b332b960b11b606082015260800190565b60208082526023908201527f455243313135353a206275726e2066726f6d20746865207a65726f206164647260408201526265737360e81b606082015260800190565b60208082526024908201527f455243313135353a206275726e20616d6f756e7420657863656564732062616c604082015263616e636560e01b606082015260800190565b6001600160a01b0386811682528516602082015260a06040820181905260009061247990830186611e0a565b828103606084015261248b8186611e0a565b9050828103608084015261249f8185611ad7565b98975050505050505050565b6000602082840312156124bd57600080fd5b81516119c881611995565b600060033d11156124e15760046000803e5060005160e01c5b90565b600060443d10156124f25790565b6040516003193d81016004833e81513d6001600160401b03816024840111818411171561252157505050505090565b82850191508151818111156125395750505050505090565b843d87010160208285010111156125535750505050505090565b612562602082860101876119e5565b509095945050505050565b60208082526028908201527f455243313135353a204552433131353552656365697665722072656a656374656040820152676420746f6b656e7360c01b606082015260800190565b6001600160a01b03868116825285166020820152604081018490526060810183905260a0608082018190526000906125ef90830184611ad7565b97965050505050505056fea2646970667358221220edd6999a97ca8872e464a7619bad43636dfb987081b31510eb7a75deabce57cc64736f6c63430008130033",
    "sourcePath": "c:/Users/bozen/Downloads/ZkSync_Deployer/contracts/ZkChickensItem.sol",
    "compiler": {
        "name": "solc",
        "version": "0.8.19+commit.7dd6d404"
    },
    "functionHashes": {
        "activeItems(uint256)": "9c318c7b",
        "balanceOf(address,uint256)": "00fdd58e",
        "balanceOfBatch(address[],uint256[])": "4e1273f4",
        "burn(address,uint256,uint256)": "f5298aca",
        "burnBatch(address,uint256[],uint256[])": "6b20c454",
        "exists(uint256)": "4f558e79",
        "isApprovedForAll(address,address)": "e985e9c5",
        "mint(address,uint256,uint256,bytes)": "731133e9",
        "mintBatch(address,uint256[],uint256[],bytes)": "1f7fdffa",
        "mintCosts(uint256)": "c70a2cf7",
        "owner()": "8da5cb5b",
        "renounceOwnership()": "715018a6",
        "safeBatchTransferFrom(address,address,uint256[],uint256[],bytes)": "2eb2c2d6",
        "safeTransferFrom(address,address,uint256,uint256,bytes)": "f242432a",
        "setApprovalForAll(address,bool)": "a22cb465",
        "setItem(uint256,uint256,bool)": "bbcf696a",
        "setURI(string)": "02fe5305",
        "supportsInterface(bytes4)": "01ffc9a7",
        "testUpdateTokenAddress(address)": "21088790",
        "testUpdateTreasuryAddress(address)": "82897b41",
        "token()": "fc0c546a",
        "totalSupply(uint256)": "bd85b039",
        "transferOwnership(address)": "f2fde38b",
        "treasuryAddress()": "c5f956af",
        "uri(uint256)": "0e89341c"
    },
    "gasEstimates": {
        "creation": {
            "codeDepositCost": "1955200",
            "executionCost": "infinite",
            "totalCost": "infinite"
        },
        "external": {
            "activeItems(uint256)": "4149",
            "balanceOf(address,uint256)": "2700",
            "balanceOfBatch(address[],uint256[])": "infinite",
            "burn(address,uint256,uint256)": "infinite",
            "burnBatch(address,uint256[],uint256[])": "infinite",
            "exists(uint256)": "2517",
            "isApprovedForAll(address,address)": "infinite",
            "mint(address,uint256,uint256,bytes)": "infinite",
            "mintBatch(address,uint256[],uint256[],bytes)": "infinite",
            "mintCosts(uint256)": "2474",
            "owner()": "2365",
            "renounceOwnership()": "infinite",
            "safeBatchTransferFrom(address,address,uint256[],uint256[],bytes)": "infinite",
            "safeTransferFrom(address,address,uint256,uint256,bytes)": "infinite",
            "setApprovalForAll(address,bool)": "26801",
            "setItem(uint256,uint256,bool)": "50672",
            "setURI(string)": "infinite",
            "supportsInterface(bytes4)": "578",
            "testUpdateTokenAddress(address)": "24693",
            "testUpdateTreasuryAddress(address)": "24582",
            "token()": "2447",
            "totalSupply(uint256)": "2560",
            "transferOwnership(address)": "28402",
            "treasuryAddress()": "2382",
            "uri(uint256)": "infinite"
        },
        "internal": {
            "_beforeTokenTransfer(address,address,address,uint256[] memory,uint256[] memory,bytes memory)": "infinite"
        }
    }
}