{
    "contractName": "ZkChickensToken",
    "abi": [
        {
            "inputs": [],
            "stateMutability": "nonpayable",
            "type": "constructor"
        },
        {
            "anonymous": false,
            "inputs": [
                {
                    "indexed": true,
                    "internalType": "address",
                    "name": "owner",
                    "type": "address"
                },
                {
                    "indexed": true,
                    "internalType": "address",
                    "name": "spender",
                    "type": "address"
                },
                {
                    "indexed": false,
                    "internalType": "uint256",
                    "name": "value",
                    "type": "uint256"
                }
            ],
            "name": "Approval",
            "type": "event"
        },
        {
            "anonymous": false,
            "inputs": [
                {
                    "indexed": false,
                    "internalType": "uint256",
                    "name": "id",
                    "type": "uint256"
                }
            ],
            "name": "Snapshot",
            "type": "event"
        },
        {
            "anonymous": false,
            "inputs": [
                {
                    "indexed": true,
                    "internalType": "address",
                    "name": "from",
                    "type": "address"
                },
                {
                    "indexed": true,
                    "internalType": "address",
                    "name": "to",
                    "type": "address"
                },
                {
                    "indexed": false,
                    "internalType": "uint256",
                    "name": "value",
                    "type": "uint256"
                }
            ],
            "name": "Transfer",
            "type": "event"
        },
        {
            "inputs": [
                {
                    "internalType": "address",
                    "name": "owner",
                    "type": "address"
                },
                {
                    "internalType": "address",
                    "name": "spender",
                    "type": "address"
                }
            ],
            "name": "allowance",
            "outputs": [
                {
                    "internalType": "uint256",
                    "name": "",
                    "type": "uint256"
                }
            ],
            "stateMutability": "view",
            "type": "function"
        },
        {
            "inputs": [
                {
                    "internalType": "address",
                    "name": "spender",
                    "type": "address"
                },
                {
                    "internalType": "uint256",
                    "name": "amount",
                    "type": "uint256"
                }
            ],
            "name": "approve",
            "outputs": [
                {
                    "internalType": "bool",
                    "name": "",
                    "type": "bool"
                }
            ],
            "stateMutability": "nonpayable",
            "type": "function"
        },
        {
            "inputs": [
                {
                    "internalType": "address",
                    "name": "account",
                    "type": "address"
                }
            ],
            "name": "balanceOf",
            "outputs": [
                {
                    "internalType": "uint256",
                    "name": "",
                    "type": "uint256"
                }
            ],
            "stateMutability": "view",
            "type": "function"
        },
        {
            "inputs": [
                {
                    "internalType": "address",
                    "name": "account",
                    "type": "address"
                },
                {
                    "internalType": "uint256",
                    "name": "snapshotId",
                    "type": "uint256"
                }
            ],
            "name": "balanceOfAt",
            "outputs": [
                {
                    "internalType": "uint256",
                    "name": "",
                    "type": "uint256"
                }
            ],
            "stateMutability": "view",
            "type": "function"
        },
        {
            "inputs": [
                {
                    "internalType": "uint256",
                    "name": "amount",
                    "type": "uint256"
                }
            ],
            "name": "burn",
            "outputs": [],
            "stateMutability": "nonpayable",
            "type": "function"
        },
        {
            "inputs": [
                {
                    "internalType": "address",
                    "name": "account",
                    "type": "address"
                },
                {
                    "internalType": "uint256",
                    "name": "amount",
                    "type": "uint256"
                }
            ],
            "name": "burnFrom",
            "outputs": [],
            "stateMutability": "nonpayable",
            "type": "function"
        },
        {
            "inputs": [],
            "name": "decimals",
            "outputs": [
                {
                    "internalType": "uint8",
                    "name": "",
                    "type": "uint8"
                }
            ],
            "stateMutability": "view",
            "type": "function"
        },
        {
            "inputs": [
                {
                    "internalType": "address",
                    "name": "spender",
                    "type": "address"
                },
                {
                    "internalType": "uint256",
                    "name": "subtractedValue",
                    "type": "uint256"
                }
            ],
            "name": "decreaseAllowance",
            "outputs": [
                {
                    "internalType": "bool",
                    "name": "",
                    "type": "bool"
                }
            ],
            "stateMutability": "nonpayable",
            "type": "function"
        },
        {
            "inputs": [
                {
                    "internalType": "address",
                    "name": "spender",
                    "type": "address"
                },
                {
                    "internalType": "uint256",
                    "name": "addedValue",
                    "type": "uint256"
                }
            ],
            "name": "increaseAllowance",
            "outputs": [
                {
                    "internalType": "bool",
                    "name": "",
                    "type": "bool"
                }
            ],
            "stateMutability": "nonpayable",
            "type": "function"
        },
        {
            "inputs": [],
            "name": "name",
            "outputs": [
                {
                    "internalType": "string",
                    "name": "",
                    "type": "string"
                }
            ],
            "stateMutability": "view",
            "type": "function"
        },
        {
            "inputs": [],
            "name": "snapshot",
            "outputs": [],
            "stateMutability": "nonpayable",
            "type": "function"
        },
        {
            "inputs": [],
            "name": "symbol",
            "outputs": [
                {
                    "internalType": "string",
                    "name": "",
                    "type": "string"
                }
            ],
            "stateMutability": "view",
            "type": "function"
        },
        {
            "inputs": [],
            "name": "totalSupply",
            "outputs": [
                {
                    "internalType": "uint256",
                    "name": "",
                    "type": "uint256"
                }
            ],
            "stateMutability": "view",
            "type": "function"
        },
        {
            "inputs": [
                {
                    "internalType": "uint256",
                    "name": "snapshotId",
                    "type": "uint256"
                }
            ],
            "name": "totalSupplyAt",
            "outputs": [
                {
                    "internalType": "uint256",
                    "name": "",
                    "type": "uint256"
                }
            ],
            "stateMutability": "view",
            "type": "function"
        },
        {
            "inputs": [
                {
                    "internalType": "address",
                    "name": "to",
                    "type": "address"
                },
                {
                    "internalType": "uint256",
                    "name": "amount",
                    "type": "uint256"
                }
            ],
            "name": "transfer",
            "outputs": [
                {
                    "internalType": "bool",
                    "name": "",
                    "type": "bool"
                }
            ],
            "stateMutability": "nonpayable",
            "type": "function"
        },
        {
            "inputs": [
                {
                    "internalType": "address",
                    "name": "from",
                    "type": "address"
                },
                {
                    "internalType": "address",
                    "name": "to",
                    "type": "address"
                },
                {
                    "internalType": "uint256",
                    "name": "amount",
                    "type": "uint256"
                }
            ],
            "name": "transferFrom",
            "outputs": [
                {
                    "internalType": "bool",
                    "name": "",
                    "type": "bool"
                }
            ],
            "stateMutability": "nonpayable",
            "type": "function"
        }
    ],
    "bytecode": "60806040523480156200001157600080fd5b506040518060400160405280600f81526020016e2d35a1b434b1b5b2b739aa37b5b2b760891b815250604051806040016040528060038152602001621690d560ea1b815250816003908162000067919062000388565b50600462000076828262000388565b505050620000b06200008d620000b660201b60201c565b6200009b6012600a62000569565b620000aa90620186a062000581565b620000ba565b620005dd565b3390565b6001600160a01b038216620001155760405162461bcd60e51b815260206004820152601f60248201527f45524332303a206d696e7420746f20746865207a65726f206164647265737300604482015260640160405180910390fd5b62000123600083836200018e565b80600260008282546200013791906200059b565b90915550506001600160a01b038216600081815260208181526040808320805486019055518481527fddf252ad1be2c89b69c2b068fc378daa952ba7f163c4a11628f55a4df523b3ef910160405180910390a35050565b6200019b838383620001a0565b505050565b6001600160a01b038316620001c457620001ba82620001ef565b6200019b62000227565b6001600160a01b038216620001de57620001ba83620001ef565b620001e983620001ef565b6200019b825b6001600160a01b0381166000908152600560209081526040808320918390529091205462000224919062000239565b62000239565b50565b6200023760066200021e60025490565b565b60006200024562000288565b905080620002538462000299565b10156200019b578254600180820185556000858152602080822090930193909355938401805494850181558252902090910155565b60006200029460085490565b905090565b80546000908103620002ad57506000919050565b81548290620002bf90600190620005b1565b81548110620002d257620002d2620005c7565b90600052602060002001549050919050565b634e487b7160e01b600052604160045260246000fd5b600181811c908216806200030f57607f821691505b6020821081036200033057634e487b7160e01b600052602260045260246000fd5b50919050565b601f8211156200019b57600081815260208120601f850160051c810160208610156200035f5750805b601f850160051c820191505b8181101562000380578281556001016200036b565b505050505050565b81516001600160401b03811115620003a457620003a4620002e4565b620003bc81620003b58454620002fa565b8462000336565b602080601f831160018114620003f45760008415620003db5750858301515b600019600386901b1c1916600185901b17855562000380565b600085815260208120601f198616915b82811015620004255788860151825594840194600190910190840162000404565b5085821015620004445787850151600019600388901b60f8161c191681555b5050505050600190811b01905550565b634e487b7160e01b600052601160045260246000fd5b600181815b80851115620004ab5781600019048211156200048f576200048f62000454565b808516156200049d57918102915b93841c93908002906200046f565b509250929050565b600082620004c45750600162000563565b81620004d35750600062000563565b8160018114620004ec5760028114620004f75762000517565b600191505062000563565b60ff8411156200050b576200050b62000454565b50506001821b62000563565b5060208310610133831016604e8410600b84101617156200053c575081810a62000563565b6200054883836200046a565b80600019048211156200055f576200055f62000454565b0290505b92915050565b60006200057a60ff841683620004b3565b9392505050565b808202811582820484141762000563576200056362000454565b8082018082111562000563576200056362000454565b8181038181111562000563576200056362000454565b634e487b7160e01b600052603260045260246000fd5b610eb080620005ed6000396000f3fe608060405234801561001057600080fd5b50600436106101005760003560e01c806370a0823111610097578063981b24d011610066578063981b24d014610201578063a457c2d714610214578063a9059cbb14610227578063dd62ed3e1461023a57600080fd5b806370a08231146101b557806379cc6790146101de57806395d89b41146101f15780639711715a146101f957600080fd5b8063313ce567116100d3578063313ce5671461016b578063395093511461017a57806342966c681461018d5780634ee2cd7e146101a257600080fd5b806306fdde0314610105578063095ea7b31461012357806318160ddd1461014657806323b872dd14610158575b600080fd5b61010d61024d565b60405161011a9190610c9a565b60405180910390f35b610136610131366004610cff565b6102df565b604051901515815260200161011a565b6002545b60405190815260200161011a565b610136610166366004610d29565b6102f9565b6040516012815260200161011a565b610136610188366004610cff565b61031d565b6101a061019b366004610d65565b61033f565b005b61014a6101b0366004610cff565b61034c565b61014a6101c3366004610d7e565b6001600160a01b031660009081526020819052604090205490565b6101a06101ec366004610cff565b6103a5565b61010d6103be565b6101a06103cd565b61014a61020f366004610d65565b6103d5565b610136610222366004610cff565b610400565b610136610235366004610cff565b610480565b61014a610248366004610d99565b61048e565b60606003805461025c90610dcc565b80601f016020809104026020016040519081016040528092919081815260200182805461028890610dcc565b80156102d55780601f106102aa576101008083540402835291602001916102d5565b820191906000526020600020905b8154815290600101906020018083116102b857829003601f168201915b5050505050905090565b6000336102ed8185856104b9565b60019150505b92915050565b6000336103078582856105de565b610312858585610658565b506001949350505050565b6000336102ed818585610330838361048e565b61033a9190610e1c565b6104b9565b6103493382610807565b50565b6001600160a01b038216600090815260056020526040812081908190610373908590610942565b915091508161039a576001600160a01b03851660009081526020819052604090205461039c565b805b95945050505050565b6103b08233836105de565b6103ba8282610807565b5050565b60606004805461025c90610dcc565b610349610a38565b60008060006103e5846006610942565b91509150816103f6576002546103f8565b805b949350505050565b6000338161040e828661048e565b9050838110156104735760405162461bcd60e51b815260206004820152602560248201527f45524332303a2064656372656173656420616c6c6f77616e63652062656c6f77604482015264207a65726f60d81b60648201526084015b60405180910390fd5b61031282868684036104b9565b6000336102ed818585610658565b6001600160a01b03918216600090815260016020908152604080832093909416825291909152205490565b6001600160a01b03831661051b5760405162461bcd60e51b8152602060048201526024808201527f45524332303a20617070726f76652066726f6d20746865207a65726f206164646044820152637265737360e01b606482015260840161046a565b6001600160a01b03821661057c5760405162461bcd60e51b815260206004820152602260248201527f45524332303a20617070726f766520746f20746865207a65726f206164647265604482015261737360f01b606482015260840161046a565b6001600160a01b0383811660008181526001602090815260408083209487168084529482529182902085905590518481527f8c5be1e5ebec7d5bd14f71427d1e84f3dd0314c0f7b2291e5b200ac8c7c3b92591015b60405180910390a3505050565b60006105ea848461048e565b9050600019811461065257818110156106455760405162461bcd60e51b815260206004820152601d60248201527f45524332303a20696e73756666696369656e7420616c6c6f77616e6365000000604482015260640161046a565b61065284848484036104b9565b50505050565b6001600160a01b0383166106bc5760405162461bcd60e51b815260206004820152602560248201527f45524332303a207472616e736665722066726f6d20746865207a65726f206164604482015264647265737360d81b606482015260840161046a565b6001600160a01b03821661071e5760405162461bcd60e51b815260206004820152602360248201527f45524332303a207472616e7366657220746f20746865207a65726f206164647260448201526265737360e81b606482015260840161046a565b610729838383610a92565b6001600160a01b038316600090815260208190526040902054818110156107a15760405162461bcd60e51b815260206004820152602660248201527f45524332303a207472616e7366657220616d6f756e7420657863656564732062604482015265616c616e636560d01b606482015260840161046a565b6001600160a01b03848116600081815260208181526040808320878703905593871680835291849020805487019055925185815290927fddf252ad1be2c89b69c2b068fc378daa952ba7f163c4a11628f55a4df523b3ef910160405180910390a3610652565b6001600160a01b0382166108675760405162461bcd60e51b815260206004820152602160248201527f45524332303a206275726e2066726f6d20746865207a65726f206164647265736044820152607360f81b606482015260840161046a565b61087382600083610a92565b6001600160a01b038216600090815260208190526040902054818110156108e75760405162461bcd60e51b815260206004820152602260248201527f45524332303a206275726e20616d6f756e7420657863656564732062616c616e604482015261636560f01b606482015260840161046a565b6001600160a01b0383166000818152602081815260408083208686039055600280548790039055518581529192917fddf252ad1be2c89b69c2b068fc378daa952ba7f163c4a11628f55a4df523b3ef91016105d1565b505050565b6000806000841161098e5760405162461bcd60e51b815260206004820152601660248201527504552433230536e617073686f743a20696420697320360541b604482015260640161046a565b610996610a9d565b8411156109e55760405162461bcd60e51b815260206004820152601d60248201527f4552433230536e617073686f743a206e6f6e6578697374656e74206964000000604482015260640161046a565b60006109f18486610aad565b84549091508103610a09576000809250925050610a31565b6001846001018281548110610a2057610a20610e2f565b906000526020600020015492509250505b9250929050565b6000610a48600880546001019055565b6000610a52610a9d565b90507f8030e83b04d87bef53480e26263266d6ca66863aa8506aca6f2559d18aa1cb6781604051610a8591815260200190565b60405180910390a1919050565b61093d838383610b5a565b6000610aa860085490565b905090565b81546000908103610ac0575060006102f3565b82546000905b80821015610b0d576000610ada8383610ba2565b60008781526020902090915085908201541115610af957809150610b07565b610b04816001610e1c565b92505b50610ac6565b600082118015610b39575083610b3686610b28600186610e45565b600091825260209091200190565b54145b15610b5257610b49600183610e45565b925050506102f3565b5090506102f3565b6001600160a01b038316610b7957610b7182610bc4565b61093d610bf6565b6001600160a01b038216610b9057610b7183610bc4565b610b9983610bc4565b61093d82610bc4565b6000610bb16002848418610e58565b610bbd90848416610e1c565b9392505050565b6001600160a01b038116600090815260056020908152604080832091839052909120546103499190610c06565b610c06565b610c046006610bf160025490565b565b6000610c10610a9d565b905080610c1c84610c50565b101561093d578254600180820185556000858152602080822090930193909355938401805494850181558252902090910155565b80546000908103610c6357506000919050565b81548290610c7390600190610e45565b81548110610c8357610c83610e2f565b90600052602060002001549050919050565b919050565b600060208083528351808285015260005b81811015610cc757858101830151858201604001528201610cab565b506000604082860101526040601f19601f8301168501019250505092915050565b80356001600160a01b0381168114610c9557600080fd5b60008060408385031215610d1257600080fd5b610d1b83610ce8565b946020939093013593505050565b600080600060608486031215610d3e57600080fd5b610d4784610ce8565b9250610d5560208501610ce8565b9150604084013590509250925092565b600060208284031215610d7757600080fd5b5035919050565b600060208284031215610d9057600080fd5b610bbd82610ce8565b60008060408385031215610dac57600080fd5b610db583610ce8565b9150610dc360208401610ce8565b90509250929050565b600181811c90821680610de057607f821691505b602082108103610e0057634e487b7160e01b600052602260045260246000fd5b50919050565b634e487b7160e01b600052601160045260246000fd5b808201808211156102f3576102f3610e06565b634e487b7160e01b600052603260045260246000fd5b818103818111156102f3576102f3610e06565b600082610e7557634e487b7160e01b600052601260045260246000fd5b50049056fea26469706673582212201ba08105f381e4e5420b78d8a9373eb34c733e74baec3aa13b2fbc5f41cd25fa64736f6c63430008130033",
    "sourcePath": "c:/Users/bozen/Downloads/ZkSync_Deployer/contracts/ZkChickensToken.sol",
    "compiler": {
        "name": "solc",
        "version": "0.8.19+commit.7dd6d404"
    },
    "functionHashes": {
        "allowance(address,address)": "dd62ed3e",
        "approve(address,uint256)": "095ea7b3",
        "balanceOf(address)": "70a08231",
        "balanceOfAt(address,uint256)": "4ee2cd7e",
        "burn(uint256)": "42966c68",
        "burnFrom(address,uint256)": "79cc6790",
        "decimals()": "313ce567",
        "decreaseAllowance(address,uint256)": "a457c2d7",
        "increaseAllowance(address,uint256)": "39509351",
        "name()": "06fdde03",
        "snapshot()": "9711715a",
        "symbol()": "95d89b41",
        "totalSupply()": "18160ddd",
        "totalSupplyAt(uint256)": "981b24d0",
        "transfer(address,uint256)": "a9059cbb",
        "transferFrom(address,address,uint256)": "23b872dd"
    },
    "gasEstimates": {
        "creation": {
            "codeDepositCost": "752000",
            "executionCost": "infinite",
            "totalCost": "infinite"
        },
        "external": {
            "allowance(address,address)": "infinite",
            "approve(address,uint256)": "24652",
            "balanceOf(address)": "2563",
            "balanceOfAt(address,uint256)": "infinite",
            "burn(uint256)": "infinite",
            "burnFrom(address,uint256)": "infinite",
            "decimals()": "200",
            "decreaseAllowance(address,uint256)": "26995",
            "increaseAllowance(address,uint256)": "infinite",
            "name()": "infinite",
            "snapshot()": "27730",
            "symbol()": "infinite",
            "totalSupply()": "2349",
            "totalSupplyAt(uint256)": "infinite",
            "transfer(address,uint256)": "infinite",
            "transferFrom(address,address,uint256)": "infinite"
        },
        "internal": {
            "_beforeTokenTransfer(address,address,uint256)": "infinite"
        }
    }
}